{
    "_format": "hh-sol-artifact-1",
    "contractName": "Transactions",
    "sourceName": "contracts/Transactiions.sol",
    "abi": [
        {
            "anonymous": false,
            "inputs": [
                {
                    "indexed": false,
                    "internalType": "address",
                    "name": "from",
                    "type": "address"
                },
                {
                    "indexed": false,
                    "internalType": "address",
                    "name": "receiver",
                    "type": "address"
                },
                {
                    "indexed": false,
                    "internalType": "uint256",
                    "name": "amount",
                    "type": "uint256"
                },
                {
                    "indexed": false,
                    "internalType": "string",
                    "name": "message",
                    "type": "string"
                },
                {
                    "indexed": false,
                    "internalType": "uint256",
                    "name": "timestamp",
                    "type": "uint256"
                },
                {
                    "indexed": false,
                    "internalType": "string",
                    "name": "account",
                    "type": "string"
                },
                {
                    "indexed": false,
                    "internalType": "string",
                    "name": "keyword",
                    "type": "string"
                }
            ],
            "name": "Transfer",
            "type": "event"
        },
        {
            "inputs": [],
            "name": "getAllTransactions",
            "outputs": [
                {
                    "components": [
                        {
                            "internalType": "address",
                            "name": "sender",
                            "type": "address"
                        },
                        {
                            "internalType": "address",
                            "name": "receiver",
                            "type": "address"
                        },
                        {
                            "internalType": "uint256",
                            "name": "amount",
                            "type": "uint256"
                        },
                        {
                            "internalType": "string",
                            "name": "message",
                            "type": "string"
                        },
                        {
                            "internalType": "uint256",
                            "name": "timestamp",
                            "type": "uint256"
                        },
                        {
                            "internalType": "string",
                            "name": "account",
                            "type": "string"
                        },
                        {
                            "internalType": "string",
                            "name": "keyword",
                            "type": "string"
                        }
                    ],
                    "internalType": "struct Transactions.TransferStruct[]",
                    "name": "",
                    "type": "tuple[]"
                }
            ],
            "stateMutability": "view",
            "type": "function"
        },
        {
            "inputs": [],
            "name": "getTransactionCount",
            "outputs": [
                {
                    "internalType": "uint256",
                    "name": "",
                    "type": "uint256"
                }
            ],
            "stateMutability": "view",
            "type": "function"
        },
        {
            "inputs": [
                {
                    "internalType": "address payable",
                    "name": "receiver",
                    "type": "address"
                },
                {
                    "internalType": "uint256",
                    "name": "amount",
                    "type": "uint256"
                },
                {
                    "internalType": "string",
                    "name": "message",
                    "type": "string"
                },
                {
                    "internalType": "string",
                    "name": "account",
                    "type": "string"
                },
                {
                    "internalType": "string",
                    "name": "keyword",
                    "type": "string"
                }
            ],
            "name": "transfer",
            "outputs": [],
            "stateMutability": "nonpayable",
            "type": "function"
        }
    ],
    "bytecode": "0x608060405234801561001057600080fd5b50610dd3806100206000396000f3fe608060405234801561001057600080fd5b50600436106100415760003560e01c806327506f53146100465780632e7700f014610064578063754091e714610082575b600080fd5b61004e61009e565b60405161005b91906108ad565b60405180910390f35b61006c610373565b60405161007991906108de565b60405180910390f35b61009c60048036038101906100979190610aac565b61037c565b005b60606001805480602002602001604051908101604052809291908181526020016000905b8282101561036a57838290600052602060002090600702016040518060e00160405290816000820160009054906101000a900473ffffffffffffffffffffffffffffffffffffffff1673ffffffffffffffffffffffffffffffffffffffff1673ffffffffffffffffffffffffffffffffffffffff1681526020016001820160009054906101000a900473ffffffffffffffffffffffffffffffffffffffff1673ffffffffffffffffffffffffffffffffffffffff1673ffffffffffffffffffffffffffffffffffffffff168152602001600282015481526020016003820180546101ab90610baa565b80601f01602080910402602001604051908101604052809291908181526020018280546101d790610baa565b80156102245780601f106101f957610100808354040283529160200191610224565b820191906000526020600020905b81548152906001019060200180831161020757829003601f168201915b505050505081526020016004820154815260200160058201805461024790610baa565b80601f016020809104026020016040519081016040528092919081815260200182805461027390610baa565b80156102c05780601f10610295576101008083540402835291602001916102c0565b820191906000526020600020905b8154815290600101906020018083116102a357829003601f168201915b505050505081526020016006820180546102d990610baa565b80601f016020809104026020016040519081016040528092919081815260200182805461030590610baa565b80156103525780601f1061032757610100808354040283529160200191610352565b820191906000526020600020905b81548152906001019060200180831161033557829003601f168201915b505050505081525050815260200190600101906100c2565b50505050905090565b60008054905090565b600160008082825461038e9190610c0b565b9250508190555060016040518060e001604052803373ffffffffffffffffffffffffffffffffffffffff1681526020018773ffffffffffffffffffffffffffffffffffffffff16815260200186815260200185815260200142815260200184815260200183815250908060018154018082558091505060019003906000526020600020906007020160009091909190915060008201518160000160006101000a81548173ffffffffffffffffffffffffffffffffffffffff021916908373ffffffffffffffffffffffffffffffffffffffff16021790555060208201518160010160006101000a81548173ffffffffffffffffffffffffffffffffffffffff021916908373ffffffffffffffffffffffffffffffffffffffff1602179055506040820151816002015560608201518160030190805190602001906104d39291906105ab565b506080820151816004015560a08201518160050190805190602001906104fa9291906105ab565b5060c08201518160060190805190602001906105179291906105ab565b5050507f21ec5b3f3e6c597e1a0d1650e5545618667a89bf7d7341cc53e38673d3dede32338686864287876040516105559796959493929190610d19565b60405180910390a18473ffffffffffffffffffffffffffffffffffffffff166108fc859081150290604051600060405180830381858888f193505050501580156105a3573d6000803e3d6000fd5b505050505050565b8280546105b790610baa565b90600052602060002090601f0160209004810192826105d95760008555610620565b82601f106105f257805160ff1916838001178555610620565b82800160010185558215610620579182015b8281111561061f578251825591602001919060010190610604565b5b50905061062d9190610631565b5090565b5b8082111561064a576000816000905550600101610632565b5090565b600081519050919050565b600082825260208201905092915050565b6000819050602082019050919050565b600073ffffffffffffffffffffffffffffffffffffffff82169050919050565b60006106a58261067a565b9050919050565b6106b58161069a565b82525050565b6000819050919050565b6106ce816106bb565b82525050565b600081519050919050565b600082825260208201905092915050565b60005b8381101561070e5780820151818401526020810190506106f3565b8381111561071d576000848401525b50505050565b6000601f19601f8301169050919050565b600061073f826106d4565b61074981856106df565b93506107598185602086016106f0565b61076281610723565b840191505092915050565b600060e08301600083015161078560008601826106ac565b50602083015161079860208601826106ac565b5060408301516107ab60408601826106c5565b50606083015184820360608601526107c38282610734565b91505060808301516107d860808601826106c5565b5060a083015184820360a08601526107f08282610734565b91505060c083015184820360c086015261080a8282610734565b9150508091505092915050565b6000610823838361076d565b905092915050565b6000602082019050919050565b60006108438261064e565b61084d8185610659565b93508360208202850161085f8561066a565b8060005b8581101561089b578484038952815161087c8582610817565b94506108878361082b565b925060208a01995050600181019050610863565b50829750879550505050505092915050565b600060208201905081810360008301526108c78184610838565b905092915050565b6108d8816106bb565b82525050565b60006020820190506108f360008301846108cf565b92915050565b6000604051905090565b600080fd5b600080fd5b60006109188261067a565b9050919050565b6109288161090d565b811461093357600080fd5b50565b6000813590506109458161091f565b92915050565b610954816106bb565b811461095f57600080fd5b50565b6000813590506109718161094b565b92915050565b600080fd5b600080fd5b7f4e487b7100000000000000000000000000000000000000000000000000000000600052604160045260246000fd5b6109b982610723565b810181811067ffffffffffffffff821117156109d8576109d7610981565b5b80604052505050565b60006109eb6108f9565b90506109f782826109b0565b919050565b600067ffffffffffffffff821115610a1757610a16610981565b5b610a2082610723565b9050602081019050919050565b82818337600083830152505050565b6000610a4f610a4a846109fc565b6109e1565b905082815260208101848484011115610a6b57610a6a61097c565b5b610a76848285610a2d565b509392505050565b600082601f830112610a9357610a92610977565b5b8135610aa3848260208601610a3c565b91505092915050565b600080600080600060a08688031215610ac857610ac7610903565b5b6000610ad688828901610936565b9550506020610ae788828901610962565b945050604086013567ffffffffffffffff811115610b0857610b07610908565b5b610b1488828901610a7e565b935050606086013567ffffffffffffffff811115610b3557610b34610908565b5b610b4188828901610a7e565b925050608086013567ffffffffffffffff811115610b6257610b61610908565b5b610b6e88828901610a7e565b9150509295509295909350565b7f4e487b7100000000000000000000000000000000000000000000000000000000600052602260045260246000fd5b60006002820490506001821680610bc257607f821691505b60208210811415610bd657610bd5610b7b565b5b50919050565b7f4e487b7100000000000000000000000000000000000000000000000000000000600052601160045260246000fd5b6000610c16826106bb565b9150610c21836106bb565b9250827fffffffffffffffffffffffffffffffffffffffffffffffffffffffffffffffff03821115610c5657610c55610bdc565b5b828201905092915050565b610c6a8161069a565b82525050565b6000819050919050565b6000610c95610c90610c8b8461067a565b610c70565b61067a565b9050919050565b6000610ca782610c7a565b9050919050565b6000610cb982610c9c565b9050919050565b610cc981610cae565b82525050565b600082825260208201905092915050565b6000610ceb826106d4565b610cf58185610ccf565b9350610d058185602086016106f0565b610d0e81610723565b840191505092915050565b600060e082019050610d2e600083018a610c61565b610d3b6020830189610cc0565b610d4860408301886108cf565b8181036060830152610d5a8187610ce0565b9050610d6960808301866108cf565b81810360a0830152610d7b8185610ce0565b905081810360c0830152610d8f8184610ce0565b90509897505050505050505056fea2646970667358221220eb593ca3e127bf68d1a30cca6a336ec16e3dc08ab11031d2da0025df0304f85964736f6c63430008090033",
    "linkReferences": {},
    "deployedLinkReferences": {}
}